:020000022000DC
:1070000000000420C18D0300018E0300038E0300E5
:10701000058E0300078E0300098E030000000000A8
:107020000000000000000000000000003D8D030093
:107030000D8E0300000000005D8D0300118E030023
:1070400015900300138E0300138E03000D620300DE
:10705000C1620300138E0300138E0300138E03001E
:10706000138E0300138E0300138E0300138E030090
:10707000138E0300138E0300138E0300138E030080
:10708000138E03008D8A0300138E0300138E0300FA
:10709000138E0300138E030045A50200138E030018
:1070A000138E0300138E0300138E0300138E030050
:1070B000138E0300138E0300000000000000000088
:1070C000138E0300138E0300138E03002995030013
:1070D000138E0300138E0300138E030075B8020095
:1070E000138E0300138E0300138E030000000000B4
:1070F00000000000138E030000000000A1950300B3
:10710000000000000000000000000000000000007F
:10711000000000000000000000000000000000006F
:10712000000000000000000000000000000000005F
:10713000000000000000000000000000000000004F
:10714000000000000000000000000000000000003F
:10715000000000000000000000000000000000002F
:10716000000000000000000000000000000000001F
:10717000000000000000000000000000000000000F
:1071800000000000000000000000000000000000FF
:1071900000000000000000000000000000000000EF
:1071A00000000000000000000000000000000000DF
:1071B00000000000000000000000000000000000CF
:1071C00000000000000000000000000000000000BF
:1071D00000000000000000000000000000000000AF
:1071E000000000000000000000000000000000009F
:1071F000000000000000000000000000000000008F
:10720000F1EE103A43F08073E1EE103A704700BFA0
:1072100010B5054C237833B9044B13B10448AFF3D0
:1072200000800123237010BD68630020000000006F
:107230005C50040008B5034B1BB103490348AFF38E
:10724000008008BD000000006C6300205C5004005A
:10725000154B002B08BF134B9D46A3F5803A002128
:107260008B460F461348144A121A17F0C3FD0F4BF2
:10727000002B00D098470E4B002B00D098470020E1
:10728000002104000D000D48002802D00C48AFF387
:10729000008017F045FD2000290011F0E9FD17F0EE
:1072A00019FD00BF000008000000042000000000DD
:1072B0000000000068630020A89800200000000083
:1072C0000000000008B5054905480FF0A9F9054977
:1072D000054B0120002208701A6008BD58230400E5
:1072E000106D0020046000206064002038B50A4C56
:1072F0000D46204609490FF065F92946204610221F
:107300000FF022FA0021064800F040FB2046054914
:10731000BDE838400FF084B9106D002064230400EC
:10732000D86A00208023040003B9704710B5137891
:107330000B4C0C490C48A3F10103B3FA83F35B092E
:1073400023700FF03FF92178084A094B0648BDE841
:107350001040002914BF114619460FF061B900BF53
:1073600005600020A0230400106D00209823040075
:107370009C230400F0B56E4C2DED068B2378A1B054
:107380004BB96C4800F09EFA002800F09F8021B0B5
:10739000BDEC068BF0BD684803F0A2F80028F0D0E1
:1073A0002378002BEDD00FF055FA644A1368C31A06
:1073B000132B0446EBD96248146008F035FD604891
:1073C000F0EE409A08F0B0FCB0EE408A28EE088A51
:1073D0005B4808F0E9FCA9EEA98A5948B0EE409A4A
:1073E000A9EE098A08F060FDB1EEC89A5448B0EEE3
:1073F00040AA08F0A5FD5248F0EE408A08F0ECFDE6
:10740000F7EE007A79EE677A9FED4E7AF0EEE77A42
:10741000F4EEC77AF1EE10FA6EDD4B4B1A78002AC3
:10742000B5D04A4D2A68A21AB2F5FA7FAFD300222E
:10743000632146201A702C600FF0FEF908EE100A46
:107440000FF008FADFED427A69EE277A034617EE6D
:10745000900A0793B8EEC88A17F0D2F9DFED3D7AAB
:1074600068EE277A0D46044617EE900ACDE90445EA
:1074700017F0C6F9384A079B0092CDE90201374A56
:10748000602108A818F094FB08A818F01AFC05461B
:1074900098B108AB324F04461E1801E09D420CD94A
:1074A000142C224628BF1422311B92B2384600F019
:1074B00021FF143C2B1B0028F0D108A929480FF00C
:1074C00081F84FF448700FF0D1F960E7264925485C
:1074D0000FF0A6F8174800F0BFFA64200FF0C6F9C5
:1074E0000021144800F052FA20491E480FF098F885
:1074F00021B0BDEC068BF0BD68EEA88A9FED1C7A2A
:10750000E0EE008AB0EE680AAAEE0A0AB4EEC70AF4
:10751000F1EE10FA81DC9FED177AF4EEC77AF1EE06
:1075200010FA7FF534AF084B01221A702FE700BF25
:1075300005600020D86A0020986400206464002060
:1075400034640020CDCC0C40046000206064002036
:10755000C3F51C410AD7233C1C240400E823040083
:10756000DC630020106D0020AC230400D023040055
:1075700000247447A4707D3F424838B54FF4E13190
:10758000054603F027FE0FF065F9044605E00FF00D
:1075900061F9001BB0F5FA6F04D2284603F032FE01
:1075A0000028F4D000220121374802F067FD0421B1
:1075B000354802F021FF3549334802F0F5FE3449E1
:1075C000314801F06BFB33492F4801F069FB324829
:1075D00002F040FA3148122100F044FE00222F4808
:1075E000112100F057FE64212C4800F03FFE2B488B
:1075F00000F04EFB02222A49284800F05FFE29488D
:10760000082100F02FFE11222648002100F042FE42
:107610002448012100F02CFE01222349214800F0DA
:107620003FFE204800F034FB1B49204800F0EAF8F8
:107630001E4800F0FDF81D48012100F047F9F42232
:107640001A48202100F03AF90021184800F09EF96C
:1076500017490C480EF0E4FF002012F0E3FA0FF097
:10766000E7F8144808F074F928B1BDE83840124929
:1076700004480EF0D5BFBDE83840104901480EF06F
:10768000CFBF00BF106D00209864002028240400A4
:10769000C5720200ED72020068640020DC63002005
:1076A000342404008463002029730200D86A002077
:1076B00038240400346400204C2404005C240400BA
:1076C00010B5044B044640F8083B02F0FFF9204691
:1076D00010BD00BFD424040070B51E4C1E491F4EBF
:1076E0001F4D84B0684602F007FA6946204602F052
:1076F000CDF9684602F0EAF91A4A1B49204616F00D
:1077000015FF1A491A4C684602F0F6F969463046E8
:1077100000F072FD684602F0D9F9124A2946304657
:1077200016F004FF1349684602F0E6F96946204660
:1077300000F062FD684602F0C9F92946094A204670
:1077400016F0F4FE6A2200210B4808F003F804B09A
:1077500070BD00BF6864002068240400DC63002062
:107760005D7C020000600020C176020088240400D5
:1077700084630020782404003464002072DF7047A2
:1077800073DF704774DF704777DF704738B50546A1
:1077900008460C4602F0BEF9102803D080280ED00F
:1077A000012038BDEB7FA2881B2B0EDCE9180320DB
:1077B000E85448704A80EB7F0433EB77F0E7A36826
:1077C000002BEDD0E97F0D2901DD002038BD6A18BE
:1077D000112068540721517058681C689968DB684B
:1077E000C2F80E30C2F80600C2F80240C2F80A1011
:1077F000EB7F1233EB77012038BD00BF0022C27748
:107800000270704730B5D1E9042485B0CD68074BCC
:1078100000936946CDE902240195FFF7B7FF0446BE
:10782000684602F053F9204605B030BDEC24040050
:10783000F0B589B0064620221348694602F0C8FD1B
:10784000F37FC2181D2A0CDDC3F11D04E4B2E21857
:107850001D2A4FF00005D8BF082705DD284609B0CE
:10786000F0BD044601250927F218601CF054694652
:107870005770901C224617F095FAF27F023214449A
:107880002846F47709B0F0BD9864002010B4084A87
:10789000084C094902620022C0E90A41C0E90C22F1
:1078A0005DF8044B0270C27742628263704700BF8A
:1078B000FF0101002000F40020001E0001858185E9
:1078C0004285704790F82300704700BF80F822106F
:1078D000704700BFF0B5154605EB8503274A89B010
:1078E000044603EB830300200E469B0011680290C0
:1078F000CDE90460ADF8143094F821308DF80830EB
:10790000CB07CDE90600039009D41D491D4BC87F64
:10791000E77F988101201C6099609F801060194961
:1079200002AA04F12000FFF729FF10B1002009B0DE
:10793000F0BD94F820101448019102F0A7FD0199C0
:1079400002460120FFF720FF0028EFD194F8200025
:107950000121FFF715FF0028E8D10B4802F002FED5
:10796000628EA68595424FF0010094BF521B921A79
:10797000628684F8230009B0F0BD00BF8064002057
:10798000146B00208464002098640020F0B500236C
:1079900061F30F032D4D044661F31F4389B0036368
:1079A000FA21284602F076FDE68D2949278D0868E0
:1079B000049706EB860303EB830300229B000592EA
:1079C000ADF8143094F8213002928DF80830C307D6
:1079D000CDE9062203920BD41E4BE27F95F89B065D
:1079E0009A8005F27C6501221C609D6098810A6086
:1079F000184902AA04F12000FFF7C0FE10B10020D0
:107A000009B0F0BD94F820101048019102F03EFD3D
:107A1000019902460120FFF7B7FE0028EFD194F844
:107A200020000121FFF7ACFE0028E8D1074802F052
:107A300099FD638EA7859E424FF0010094BF9B1B6A
:107A4000DB1A638684F8230009B0F0BD9864002037
:107A5000806400208464002010B5044690F8200063
:107A6000FFF790FE08B1002010BD84F82300024803
:107A700002F08CFD012010BD9864002030B50B8809
:107A80008D88112B85B0044605D0262B33D0102BC2
:107A900025D005B030BD436AEB40DB07F9D52E4851
:107AA00001F0DCF80028F4D1636A94F82310012275
:107AB00002FA05F523EA050363620029E9D194F887
:107AC0002230002BE5D0238E23486386FA2102F072
:107AD000E1FCE28D218D2046FFF7FCFED9E7CB7B50
:107AE000012BD6D1426A03FA05F5154300234562FE
:107AF00080F82330CDE70B7A012BCAD1002380F820
:107B000023304FF4FA71144802F0C4FC238E5BB1A9
:107B1000658E95B1A36B0BB19847658E618D2A4632
:107B20002046FFF7D7FEB4E7A36B03B19847618DFA
:107B300000222046FFF7CEFEABE7074802F026FD05
:107B4000626B002AA5D0009503AB29462846039511
:107B500011F0FEFE9DE700BF9864002075DF7047BE
:107B600010B44FF010144FF448010022C0E9004156
:107B7000C0E902225DF8044B704700BF014800F0E5
:107B800073BE00BF886B0020F8B500250D4F2E4650
:107B900001E0142D14D0A9B2384602F0CBFC013517
:107BA00004460028F5D000F00DFD0028F1D0204655
:107BB00000F012FD022804BF0136F6B2142DEAD1FE
:107BC0003046F8BD9864002070B58E881B480C467E
:107BD00094B0314602F0AEFC23881A2B05D01F2B3F
:107BE0001CD0102B0FD014B070BD054600F0ECFC7B
:107BF0000028F8D0284600F0E9FC0028F3D12846F8
:107C000000F04AFDEFE7694600F02EFD0028EAD0BB
:107C10006A4631460A4801F0B9FBE4E754F8080F18
:107C200061686B4603C33046BDF80030ADF80230E2
:107C30006946FFF793FF14B070BD00BF9864002041
:107C4000B8640020AADF7047ABDF7047ACDF704735
:107C5000ADDF7047AEDF7047B0DF704710B5044B43
:107C6000044640F8043B01F031FF204610BD00BF40
:107C7000A424040010B5054B044640F8043B01F071
:107C800025FF204611F036F9204610BDA42404003B
:107C900070B57B4B04461B68836196B0043001F0DD
:107CA00049FF94F82E30A06913F0320208BF84F81F
:107CB0002F2013F00C0308BF84F830300DF10102BF
:107CC000694601F0F9FE94F82F209DF80100150790
:107CD0000DD09DF8001002F00F0301F00F059D423A
:107CE0004FEA12126DD243EA021284F82F2094F860
:107CF000303019070BD003F00F0100F00F058D4253
:107D00004FEA131369D241EA031384F8303094F830
:107D10002E1011F0300340F096800FAD0F93C5E99F
:107D20000133C5E903338DF83C10AB610021ADF898
:107D300009109DF80A10206A1493012363F342018D
:107D40008DF808208DF80A1008B1037873BB94F8F9
:107D5000263013B104F12603129394F83120002346
:107D6000D2070893079358BFE38AADF81C3004F19B
:107D7000080004F12F01CDE9050154BF1846E08A3F
:107D8000ADF82000294604F13203E569099505AAFA
:107D90000020FFF757FF054628B994F8253043BB6C
:107DA000237D002B64D0284616B070BD109017F0CC
:107DB00088FF02AB80B2ADF84400ADF846001393E3
:107DC000C5E74FEA111101D191428CD30A462B46E7
:107DD00043EA021284F82F2089E74FEA101001D1FC
:107DE000984290D30346294641EA031384F8303081
:107DF0008DE7ADF80D009DF80E2094F82F600C90E3
:107E0000012363F3420242F608118DF80E208DF82B
:107E1000123004AA0223ADF8101003A90D90ADF89A
:107E20003030ADF834300A9204F124030B910DF197
:107E300002020AA98DF80C600E93FFF705FF0028D7
:107E4000AED00546AFE70F4B8DF805200FAD1B7880
:107E50008DF80430022000230F938DF80600C5E949
:107E60000133C5E90333AB618DF83C1001AB5DE72D
:107E70002146054800F0B4FE284616B070BD00BF8C
:107E80009464002098240400D86800202DE9F04173
:107E90000B888E88502B8AB00C46054609D0512B92
:107EA00004D18B79012B19D0022B26D00AB0BDE862
:107EB000F081CB88428E9A4235D0EA8E9A42F5D133
:107EC0006B6D002BF2D095F84420648A920700F184
:107ED0008A802246294630469847E7E7836C002B84
:107EE000E4D090F84420520701F108076CD43A46D8
:107EF000294630469847A379D6E7A27B042A46D084
:107F0000062A20D0012AD1D1EB6C002BCED095F8D7
:107F10004420170704F1080400F1A58022462946F1
:107F200030469847C2E7076D002FC6D090F844301E
:107F3000D90768D404F11208238A424629463046FC
:107F4000B847E388B9E7EA6B002AAFD0002202A95C
:107F50003046CDE90222CDE90422ADF80C208DF89F
:107F60000830FFF779FE2C6D54B195F84430D807EE
:107F700000F19280B5F84230EA6B30462946A047BE
:107F8000E86B0EF0A9FC0023C5E90F338EE7E86B20
:107F9000002878D0B5F84010278A628A07EB020CD7
:107FA00000234FF0020E8C45CDE90633CDE90833AE
:107FB0008DF818E039DD40F20913ADF81C3006A940
:107FC0003046FFF749FE71E703211A46009106ABE0
:107FD00008213846CDE90665089711F0B9FC00285C
:107FE00089D1AB6C83E7032000211A46009006ABD1
:107FF0000846CDE90665089411F0AAFC00287FF434
:1080000055AF6B6D65E7218A069604F112080423CB
:1080100000933A46404606ABCDE90881079511F03A
:1080200097FC00288DD12F6D86E79DF81EC0ADF816
:108030001C3004F114014CF001033844ADF8222047
:108040008DF81E300991ADF8207016F0ABFE238A32
:10805000618AB5F842200B449BB2934238BF134665
:10806000A5F84230ABE703211A46009106AB0E217A
:108070002046CDE90665089411F06AFC00287FF4DB
:1080800015AFEB6C4AE74FF480600EF00BFC4FF439
:108090008061C5E90F017FE7E86BB5F842100696ED
:1080A00004230093224606ABCDE90750099111F055
:1080B0004FFC00287FF464AF2C6D5BE72DE9F04F97
:1080C0000F464FF6FF718F4289B0064615461C4693
:1080D00026D0F18A96F82E308C4228BF0C46DB065B
:1080E00015D40DF1100B8C4228BF0C464FF0000840
:1080F000718EADF810405A464FF6FF700595ADF8F9
:108100001280FFF7A3FD404609B0BDE8F08F394863
:10811000394602F0F7F908B1F18E31B9F18AE0E79A
:10812000344802F0FBF90746D3E7002002230DF1A3
:10813000100BADF81200ADF810305A460DF10E03D9
:1081400038460593FFF784FD43F2014398424FD030
:1081500000284AD19DF80E8008F00108B8F1000F00
:1081600046D02448394602F0E5F98246A0B300F033
:1081700035FA033883B2002CC5D0CDF804804FF017
:108180000009984605E0BDF80E30E41AA4B21D447B
:1081900044B3504600F036FAA045034642465946DD
:1081A00028BF22463846BBB1ADF80E204FF0010281
:1081B000738E8DF812200DF10E02CDE90625CDF853
:1081C00013908DF81790ADF81030FFF743FD00289D
:1081D000D9D0504600F020FA4FF00008404609B0D0
:1081E000BDE8F08FDDF804808DE700F00108B5E709
:1081F000F18A78E79864002070B44E68164A866069
:108200000260D1E90262154B154D1C784560026190
:10821000142500220321C0E90F22C0E91222C0E97F
:108220001422C660C58280F8311080F8442002759F
:10823000826102628284C0F82620C0F82A2080F879
:108240002E20C26142864263028780F82F4080F868
:10825000304070BC704700BFA42404009824040080
:10826000EC24040080F82E10704700BFC1827047D4
:1082700041B190F83130C182002262F3000380F8EE
:108280003130704790F83130012262F3000380F8FA
:108290003130704780F82F1080F83020704700BFD1
:1082A00090F84430016562F3000380F84430704771
:1082B00051F8322F026049684160704730B5C48A76
:1082C00083B0944223460D4628BF1346418E019544
:1082D00000246A464FF6FF70ADF80030ADF802405A
:1082E000FFF7B4FC18B9BDF8000003B030BD20465C
:1082F00003B030BD10B490F82E4014F0100407D035
:1083000013465DF8044B0A464FF6FF71FFF7D6BEE1
:1083100020465DF8044B7047A1DF7047A3DF70472C
:10832000A4DF704700238383704700BF006A00F01A
:10833000E3B800BF808B70472DE9F0410B88CE88F1
:10834000382B86B00C46054606D0392B66D0362B26
:1083500043D006B0BDE8F08100F12407002E36D1ED
:108360000A8A3846314602F0A5F994F80C80B8F133
:10837000010F2CD0B8F1040FEBD1286A00F0BCF843
:1083800001465C4802F0D6F800F028F92A8E05383C
:1083900083B2934228BF1346002B00F09A80218AB3
:1083A000E289286AAC8B8DF80D600A44E96A059170
:1083B0008DF80C80ADF81230ADF81020ADF80E40FD
:1083C00000F09AF803A9FFF7A9FF0028C1D03846AA
:1083D00002F088F906B0BDE8F081006A00F08CF880
:1083E0000146444802F0A6F800F0F8F807466EBBD4
:1083F00005F12406E289304604F1100102F05AF931
:108400002B8E2BB1F81EE38980B20138834255DAF6
:10841000304602F067F906B0BDE8F0810B7B012B16
:108420001AD0022B95D1836B002B92D090F83C2070
:108430008F8892071FD401F11006E2893146284641
:10844000984761893846FFF76BFF82E705F12407FB
:10845000384602F047F9BDE7436B002B3FF479AF94
:1084600090F83C20D10717D404F11006E289314678
:10847000284698476DE7C989039004F11006032048
:108480001A46009003AB3046CDE9046111F060FA62
:108490000028D6D1AB6BD0E7E189039004F1100638
:1084A00003201A46009003AB3046CDE9046111F079
:1084B0004FFA00287FF44DAF6B6BD7E7286A00F0C6
:1084C0001BF86A8EA98B92B2FFF726FF00289FD176
:1084D0003FE7AA8B286AADF80E2040F20511ADF8EF
:1084E0000C10CDE9043300F007F803A9FFF716FFDD
:1084F0006DE700BF98640020808870478FDF704769
:1085000090DF7047B1DF7047B5DF704710B5074B9C
:1085100003600446806A0FF027F8E06A0FF024F841
:10852000206B08B10FF020F8204610BDBC240400D9
:1085300010B5094B03600446806A0FF015F8E06A35
:108540000FF012F8206B08B10FF00EF8204610F073
:10855000D1FC204610BD00BFBC24040070B5044609
:108560000D4692E80300A5800E0CA061A183144D76
:10857000A67717201B2156892560E0809589D08930
:10858000E181D1796581012222752274A081617413
:108590001846194626819DF810500EF047FA2946D4
:1085A000A06228460EF042FA4FF4885100234FF69D
:1085B000FF72E182E062628223636375204670BDD0
:1085C000BC240400007D7047407D7047C07D113899
:1085D00018BF0120704700BF407C7047C0887047BB
:1085E000008970474B7D10B44BB11F310C688A88ED
:1085F0008B79046082805DF8044B83717047183179
:10860000F4E700BF08B56621806A0EF031FE00383D
:1086100018BF012008BD00BF08B500231A4619463F
:10862000806A0EF035FA003818BF012008BD00BF7F
:10863000818800F11F02407C02F09AB838B50A46E2
:1086400005460C468188407C02F07EF821460120D8
:1086500051F8483FC5F81F308B888A7985F8252066
:10866000A5F82330687538BD38B50A4604460D466E
:1086700000F11801407C02F0B1F8607550B1294654
:1086800051F8483FC4F81F308B888A7984F8252038
:10869000A4F8233038BD00BF10B5447D24B100F1EB
:1086A0001F01407C02F078F8204610BD70B50B88A1
:1086B000113B82B00C460546462B2BD8DFE803F071
:1086C000383B2A2A2A2A2A2A2A422A2A2A2A2A2AD3
:1086D00050585E642A2A2A2A2A2A2A2A2A2A2A2A38
:1086E0002A2A2A2A2A2A2A2A2A672A942A2A2A2A43
:1086F0002A2A2A2A2A2A2A2A2A2A2A2A2A2A2A2ADA
:108700002A246A2A752C84000023A8881A46194650
:10871000FFF7F8FE02B070BD8B79002BFAD1006B29
:10872000AB750028F6D01A4619460EF0B1F9F1E7FC
:1087300000230375EEE74B8903818B894381CB8945
:108740008381E7E70B7AC375112BE3D0818800F1B1
:108750001F02407C02F0FAF803460028DAD1D4E781
:10876000002301A98088ADF80430FFF7C7FED1E7E8
:108770000B7A002BCED14B7A0374CBE70022114643
:108780008088FFF7BDFEC5E70B89C381C2E74B892F
:10879000C380BFE7006B0123AB750028BAD000236C
:1087A0001A4619460EF074F9B4E7417C164801F0F8
:1087B000B9FEE3880146994228BF194689B2A888C4
:1087C000E980FFF7A1FEA5E78B79002BA2D0002658
:1087D00000231A461946A86A0EF05AF90136A27902
:1087E000F3B29A42F4D895E78B7A002B92D0002608
:1087F00000231A461946E86A0EF04AF90136A27AB1
:10880000F3B29A42F4D885E79864002070B58AB034
:1088100086880B4606A84FF42851144605934FF658
:10882000FF7501F05BF90120CDE90105059B00947E
:10883000314606AA044800F06FF8044606A801F085
:1088400045F920460AB070BDD868002010B504462E
:10885000043001F0CBFE034B236000232375204638
:1088600010BD00BF0100FFFF017D01B1704710B5D1
:108870000446043001F0C4FE0123237510BD00BF7F
:10888000007D70470B88322B10B504D0332B17D0E6
:10889000302B08D010BDCB88DBB1041D2046BDE8CD
:1088A000104001F01FBFCB88041D002BF6D14B896F
:1088B000002BF3D00A3120460A2201F0FBFEEDE73F
:1088C000CB88002BE9D14A89002AE6D002EB42028C
:1088D00004E04A89002AE0D002EB82025200041D23
:1088E000023292B20A31204601F0E4FED6E700BF20
:1088F000A0DF704710B5044600F5F87001F076FE71
:108900002046F822002116F075FAF822A01800215E
:1089100016F070FA204610BD2DE9F04782B00546EA
:10892000BDF82C60BDF830402048ADF80460BDF8BB
:1089300028A0ADF80640904699460F4601F0FAFD92
:1089400005F5F875064603E0FFF74AFE0DF08EFFC9
:10895000284601F0ADFE04463046002CF4D101213A
:10896000284601F04DFE52464946284601F064FE75
:1089700008F10401384601AAFFF7BAFF30B12846D2
:1089800001F048FE204602B0BDE8F0874FF4FA71CE
:10899000284601F057FE20EAE074284601F03AFE2E
:1089A000A4B2204602B0BDE8F08700BF9864002062
:1089B0002DE9F04F8F880D8885B0884604463946EA
:1089C000864801F0B7FDA5F11003012B814640F266
:1089D000908094F854203AB3002633461633502D35
:1089E00054F823A069D0512D1AD198F80630B8F860
:1089F00008B0022B53D0BBF1000F11D0514668468E
:108A0000FFF756FCBDF800305B4559D0514602A82F
:108A1000FFF74EFCBDF80C305B4551D094F8542064
:108A20000136F3B29342D9D394F84C31002B00F0C5
:108A3000D18004F5A679002604E094F84C31013683
:108A4000B34220DD59F8040FFFF770FCB842F4D1AF
:108A5000382D03D0392D01D0362DEED1B8F80AA02B
:108A6000BAF1000FE9D0D9F800B05846FFF762FC20
:108A70005045E2D158464146FFF75EFC94F84C3130
:108A80000136B342DEDC112D55D0352D04D1B8F8B6
:108A90000A30002B40F08F8005B0BDE8F08F98F8C9
:108AA0000E30062BA7D1DAF800305046DB6841467D
:108AB00098474846FFF78AFDB0E7B8F806B09AE74E
:108AC000DAF800305046DB68414698474846FFF7E1
:108AD0007DFD0028A2D0502DA0D1514602A8FFF75D
:108AE000E7FBBDF80C305B4598D14846FFF7A0FD89
:108AF00094E72378002B3FF46CAF0026112D33460A
:108B00000CD004EB83033946586803685B689847C8
:108B100001362278F3B29A42F3D85AE704EB830382
:108B20003946586803681B68984701362278F3B2C3
:108B30009A42F3D84DE7D3B10026334605E094F8C6
:108B40004C210136F3B29A4211D904EB8305D5F8D2
:108B50005001FFF7EBFBB842F1D1D5F85001FFF718
:108B6000E1FB013694F84C21F3B29A42EDD894F827
:108B7000F820002A90D000252B4604EB8303D3F87D
:108B8000FC008388BB420AD00135EBB2934283D20A
:108B900004EB8303D3F8FC008388BB42F4D1036861
:108BA0001B689847013594F8F820EBB29342E4D360
:108BB00005B0BDE8F08F04F5F874B8F80C20204635
:108BC00008F1100101F076FD204605B0BDE8F04F38
:108BD00001F088BD112D7FF458AFC8E798640020DC
:108BE00090F85420272A0CD810B4034602F116043A
:108BF000013280F8542043F8241001205DF8044B22
:108C000070470020704700BF0378132B06D800EB95
:108C100083020133037001205160704700207047C8
:108C200078DF70477ADF7047054A034692E8030011
:108C3000002283E80300C3E902221846704700BF00
:108C4000C424040008B5FFF7EDFF08B1002008BDFB
:108C5000FFF7E6FFB0FA80F0400908BDF8B500253F
:108C60000D4F2E4601E0142D14D0A9B2384601F064
:108C700061FC013504460028F5D0FFF7A3FC00286D
:108C8000F1D02046FFF7A8FC012804BF0136F6B258
:108C9000142DEAD13046F8BD9864002081607047F9
:108CA000C1607047704700BF8ADF704730B40D4C19
:108CB000C4621F25002250248584A025C0E911220A
:108CC000C0E90F22A0F84650A0F84840006230BC2E
:108CD0008262028680F838204263C264A0F8502085
:108CE000704700BF000180002DE9F04F10468DB0A5
:108CF00016460C4600F00EFFC5B2102D4FD0B668D8
:108D000007220623A16994F81C9001918DF80D208B
:108D10008DF80C30ED080DF10C080DF10E0A00274E
:108D2000B9F1010F0A97CDE90477CDE90677CDE9CE
:108D30000877CDF82B700ED998F8000001994B46B2
:108D40004A7882420FD00A78D4432344013213F088
:108D5000FF031144F4D108F10108C245E0D100201D
:108D60000DB0BDE8F08F11F8024B013CE4B2224691
:108D700004A816F017F80DF1100B1CB9EBE714F06E
:108D8000FF04E8D058462A46314615F0FDFF641B23
:108D9000AB440028F3D101200DB0BDE8F08F0436BC
:108DA00003220223AEE700BF2DE9F0430B888E8833
:108DB000103B87B00D4604460D2B2CD8DFE803F09E
:108DC00077072B2B2B2B2B2B2B2B2B842B2E836AD8
:108DD000F340DB071FD55648FEF7D6FED8B9A36A85
:108DE00094F82C20012505FA06F623EA0606A66269
:108DF0008AB994F82D3073B11F232462A38404F13F
:108E0000200104F14400FFF74FFF20B9494801F069
:108E1000A9FB84F82C5007B0BDE8F08390F92E2010
:108E200091F91B309A423ADC90F8383001F1080889
:108E30000BB3DFF80491002602E0D6B2B34218D992
:108E4000636BCDF8089003EB061302AA59680391EF
:108E5000D3E902734146204605930497FFF744FF88
:108E6000074602A800F032FE94F83830721C002F3A
:108E7000E3D09E4213D094F82F30002B49D095F8C0
:108E80002430012B0BD9296A4A78FF2A30D00A787E
:108E9000D0430344013213F0FF031144F4D104F131
:108EA00020010020FFF700FF07B0BDE8F083CB7B77
:108EB000022BB0D1836A012202FA06F63343002264
:108EC000836280F82C20A6E70B7A012BA3D1002522
:108ED00080F82C50174801F059FB226C002A9AD0D8
:108EE000009502AB29462846029510F031FD92E725
:108EF00011F8025B6A1ED2B2022A28BF022202A81F
:108F000015F050FF012DCAD0228EBDF808309A42CC
:108F1000C5D1E26B002A3FF47EAF012300934046A7
:108F200002AB2421CDF8088010F012FD73E700BFDA
:108F3000A864002098640020EC24040046DF7047F9
:108F40007FDF704780DF704781DF704785DF7047C4
:108F500086DF704738B51C460D4603461146284645
:108F60002246984734B1014600222846BDE83840E1
:108F7000FFF7E8BF38BD00BF10B50C4682B003460E
:108F80006946204698476A4620460121FFF7DAFFE6
:108F900002B010BD10B50446083001F001FF074BC8
:108FA0002360032200232271C4F81034C4F814345F
:108FB000C4F81834C4F81C34204610BD350710031B
:108FC00030B50446ADF55F7D00F108058F4801F02E
:108FD0007BFE0821284601F0E7FE684601F0EEFE20
:108FE0006846082101F0EEFE6946284601F08CFE35
:108FF00004F54F714122684601F0F2FE684601F027
:10900000EBFE94F85C0394F85B2394F83D1394F81A
:109010003E3384F83D0384F83E2394F85A0394F8D1
:10902000592394F83F5384F85C1384F85B3394F825
:10903000401394F8413384F83F0384F8402394F8B4
:10904000580394F8572384F85A5384F8591394F822
:10905000425394F8431384F8410384F8583394F846
:10906000560394F8443384F8422394F8552384F843
:10907000575384F8430384F8442384F8553384F821
:10908000561394F8451394F8540394F8532394F822
:10909000463384F8450384F8462394F8520394F841
:1090A000512394F8475384F8541384F8533394F8B5
:1090B000481394F8493384F8470384F8482394F814
:1090C000500394F84F2384F8525384F8511394F8C2
:1090D0004A5394F84B1384F8490384F8503394F8B6
:1090E0004E0394F84C3384F84A2394F84D2384F8C3
:1090F0004F5384F84B0384F84C2384F84D3384F8A1
:109100004E1394F85D1394F87C0394F87B2394F841
:109110005E3384F85D0384F85E2394F87A0394F850
:10912000792394F85F5384F87C1384F87B3394F8A4
:10913000601394F8613384F85F0384F8602394F833
:10914000780394F8772384F87A5384F8791394F8A1
:10915000625394F8631384F8610384F8783394F8C5
:10916000760394F8643384F8622394F8752384F8C2
:10917000775384F8630384F8642384F8753384F8A0
:10918000761394F8651394F8740394F8732394F8A1
:10919000663384F8650384F8662394F8720394F8C0
:1091A000712394F8675384F8741384F8733394F834
:1091B000681394F8693384F8670384F8682394F893
:1091C000700394F86F2384F8725384F8711394F841
:1091D0006A5394F86B1384F8690384F8703394F835
:1091E0006E0394F86C3384F86A2394F86D2384F842
:1091F0006B03012084F86F5384F86E1384F86C239A
:1092000084F86D330DF55F7D30BD00BF246C002008
:109210000B7803F0FE03042B01D00020704770B5DB
:1092200015468CB00C462022002104A815F0E2FD62
:1092300028686968AA68EB686D460FC59DF800103C
:109240009DF80F209DF801609DF80E509DF80200DA
:109250008DF80F1023469DF80D108DF800209DF815
:1092600003208DF80E608DF801509DF80C609DF87C
:1092700004508DF80D008DF802109DF80B009DF83C
:1092800005108DF80C209DF80A208DF803608DF8EC
:109290000B508DF804008DF805208DF80A109DF80C
:1092A000061033F8042FADF810209B789DF80920A4
:1092B0009DF81D009DF810609DF81F508DF8091055
:1092C0008DF806209DF811109DF81E208DF81D3098
:1092D0009DF807308DF812008DF81F609DF808008A
:1092E0009DF813608DF810508DF81E109DF81C50DD
:1092F0009DF814108DF811208DF808309DF81B2072
:109300009DF81A308DF807008DF81C608DF8135009
:109310009DF815608DF81B108DF8142068468DF8A7
:1093200015309DF819109DF817209DF818309DF8FC
:1093300016508DF818208DF816108DF817308DF80E
:109340001A608DF81950FFF7F9FD62789DF82F30FB
:109350009DF82E009DF82D108DF821009A428DF871
:10936000221004F1010404D0012080F001000CB0AF
:1093700070BD6278C3B29A4204F10104F4D16278FC
:10938000CBB29A42F0D10020EFE700BF08B5137CC2
:10939000DB0758BF1C32084602F11201FFF7D6FD69
:1093A000B0FA80F0400908BDF0B58F880E46ADF5E3
:1093B0006B7D04463946464801F0BCF83388133BC0
:1093C0000546072B2FD8DFE813F03E005F006D0045
:1093D0002E002803870008003100337AB3B9737B6D
:1093E0009B070ED4294602A8FFF7FCF80299BDF8A6
:1093F0000C209DF80E3084F80C34C4F80614A4F840
:109400000A24284604F2BE31FFF718F9D4F81824CC
:109410004AB1307A0D9002230021009308460CAB2C
:109420000C9710F095FA0DF56B7DF0BDD4F81C2467
:10943000002AF8D001230021009308460CAB0C97BA
:1094400010F086FAEFE704F2BE3304F2DA320C933E
:1094500004F2F63300251092119304F23D3204F227
:109460007E330F921393CDE90D551295FFF7B4F8A3
:1094700001280CBF22462A460CAB29463846FFF786
:109480005FFD0DF56B7DF0BD0CA9FFF7EDF8034610
:10949000002800F0D2820CA9384600231AAAFFF750
:1094A00057FDC0E7D4F810140029BCD0B37B094A9B
:1094B00003F001030F930423CDE90C1706F1080014
:1094C000009306210CAB0E9010F042FAABE700BF00
:1094D00098640020558F020094F87E3394F89D2301
:1094E00094F87FC394F89C6394F8805394F89B039A
:1094F00084F89D33042194F89A3384F87D1384F81A
:109500007E2394F8811394F8822384F89CC384F812
:109510007F6394F899C394F8836384F89B5384F829
:10952000800394F8985394F8840384F89A1384F889
:10953000813394F8971394F8853384F8992394F839
:10954000962384F882C384F8986384F8835384F85C
:10955000970384F8841384F8852384F8963394F869
:10956000862394F8953394F887C394F8946394F819
:10957000885394F8930394F8891384F8952384F816
:10958000863394F8922394F88A3384F894C384F849
:10959000876394F891C394F88B6384F8935384F8A9
:1095A000880394F8905394F88C0384F8921384F809
:1095B000892394F88F1394F88D2384F8913394F8C9
:1095C0008E3384F88AC384F8906384F88B5384F8CC
:1095D0008F0384F88C1384F88D3384F88E2394F8E9
:1095E0009E2394F8BD3394F89FC394F8BC6394F819
:1095F000A05394F8BB0394F8A11384F8BD2384F816
:109600009E3394F8BA2394F8A23384F8BCC384F848
:109610009F6394F8B9C394F8A36384F8BB5384F8A8
:10962000A00394F8B85394F8A40384F8BA1384F808
:10963000A12394F8B71394F8A52384F8B93394F8C8
:10964000B63384F8A2C384F8B86384F8A35384F8CB
:10965000A41384F8B62384F8A53384F8B70394F8E8
:10966000A60394F8B51394F8A72394F8B43394F8A8
:10967000A86394F8B35384F8B50384F8A61394F858
:10968000A90394F8B21384F8B42384F8A73394F8A8
:10969000AA2394F8B13384F8B36384F8A85394F8F8
:1096A000AB6394F8B05384F8B20384F8A91394F828
:1096B000AC0394F8AF1384F8B12384F8AA3394F878
:1096C000AD2394F8AE3384F8AD3384F8AE2384F838
:1096D000B06384F8AB5384F8AF0384F8AC130CA8E0
:1096E00001F06CFB0CA8082101F06CFB04F27D3149
:1096F0000CA8412201F086FB0CA904AA202304F146
:10970000080001F02FFB0CA801F066FB9DF810107B
:109710009DF82F009DF811309DF82E209DF81260C5
:109720009DF82D508DF810008DF82F109DF8130026
:109730009DF82C108DF811208DF82E309DF81420F6
:109740009DF82B308DF812508DF82D609DF8155036
:109750009DF82A608DF813108DF82C009DF81610D6
:109760009DF829008DF814308DF82B209DF81730C6
:109770009DF828208DF815608DF82A508DF8160078
:109780008DF817208DF828308DF829109DF81810C5
:109790009DF827009DF819309DF826209DF81A6045
:1097A0009DF825508DF818008DF827109DF81B00A6
:1097B0009DF824108DF819208DF826309DF81C2076
:1097C0009DF823308DF81A508DF825609DF81D50B6
:1097D0009DF822608DF81B108DF824009DF81E1056
:1097E0009DF821008DF81C308DF823209DF81F3046
:1097F0009DF820208DF81D608DF822508DF82110E5
:109800008DF81F208DF820308DF81E0094F87E030F
:1098100094F89D1394F87F2394F89C3394F8806314
:1098200094F89B5384F89D0384F87E1394F8810385
:1098300094F89A1384F89C2384F87F3394F8822355
:1098400094F8993384F89B6384F8805394F8836385
:1098500094F8985384F89A0384F8811394F8840355
:1098600094F8971384F8992384F8823394F8852325
:1098700094F8963384F8986384F8835384F88413B7
:1098800084F8962384F8853384F8970394F8860344
:1098900094F8951394F8872394F8943394F8886394
:1098A00094F8935384F8950384F8861394F8890305
:1098B00094F8921384F8942384F8873394F88A23D5
:1098C00094F8913384F8936384F8885394F88B6305
:1098D00094F8905384F8920384F8891394F88C03D5
:1098E00094F88F1384F8912384F88A3394F88D23A5
:1098F00094F88E3384F8906384F88B5384F88C1337
:1099000084F88E2384F88D3384F88F0394F89E03B3
:1099100094F8BD1394F89F2394F8BC3394F8A06393
:1099200094F8BB5384F8BD0384F89E1394F8A10304
:1099300094F8BA1384F8BC2384F89F3394F8A223D4
:1099400094F8B93384F8BB6384F8A05394F8A36304
:1099500094F8B85384F8BA0384F8A11394F8A403D4
:1099600094F8B71384F8B92384F8A23394F8A523A4
:1099700094F8B63384F8B86384F8B70384F8A41372
:1099800084F8B62384F8A53384F8A35394F8A65337
:1099900094F8A72394F8B43394F8B50394F8A81373
:1099A00094F8B36384F8B55384F8B42394F8A953B6
:1099B00094F8AA2384F8A73394F8B13394F8B0C389
:1099C00084F8A60384F8B31394F8B20394F8AB13A5
:1099D00084F8A86384F8B25394F8AC6394F8AF5356
:1099E00084F8B12384F8AA3394F8AD2394F8AE3305
:1099F00084F8A90384F8B013384604A984F8ABC3EB
:109A000084F8AF6384F8AC5384F8AE2384F8AD33A4
:109A1000FFF79AFA0DF56B7DF0BDD4F81424002AF7
:109A20003FF401AD0223002100930C920CAB064AD7
:109A30000D9708460FF08CFFF5E438461A46194694
:109A4000FFF786FAEFE400BF798F0200A8DF7047C6
:109A5000704700BF30B5044683B0083000F06AF8A4
:109A600004F10C010DF106020120FFF7EFFF05469E
:109A700028B9044B04481C602146FFF7C5F8284666
:109A800003B030BD94640020D868002030B44C6826
:109A9000C460D1E90241054A054D0260054A85606E
:109AA000C0E90441426030BC704700BFD4240400C8
:109AB000EC2404000000111183790B70C37913703A
:109AC000704700BF62DF704763DF7047704700BFB9
:109AD00010B504460FF00EFA204610BD10B4054C28
:109AE0008180002201210460C0E902225DF8044B5C
:109AF00081717047EC240400002210B4044C04600F
:109B000081605DF8044B82718280C260704700BF43
:109B1000EC2404008379012B0AD0826832B9C26830
:109B200022B9012B8CBF8020002070478020704715
:109B3000102070472DE9F047857982B0002D47D17C
:109B4000C7680646002F47D010200CF0ABFE8246B7
:109B5000384616F0B6F8441E30B3DFF88490A846B5
:109B600004E00134023C1FD4102D1DD017F804C0AE
:109B7000BCF12D0F07EB0402F3D099F80030ADF8DB
:109B800005808DF8043012F8013C8DF80430102265
:109B9000002101A88DF805C016F04EF96B1C023C9F
:109BA0000AF80500DDB2DFD5C6F808A0BAF1000F4B
:109BB0000ED0B11D5046FFF785FFB168321D102051
:109BC000FFF782FFB0FA80F0400902B0BDE8F087ED
:109BD000012002B0BDE8F087D0F808A0E6E700BF9A
:109BE000E02404004DDF70474EDF70474FDF7047C1
:109BF00050DF70474BDF704710DF70477CDF7047E6
:109C00007DDF704760DF704769DF704761DF704755
:109C100066DF704767DF7047704700BF0C2010F0A9
:109C2000D1B800BF30B5224C224D83B0D4F82807FC
:109C30004FF0FF310DF01CFB0028F7D0C5B101A893
:109C4000FFF7D8FF0528F1D00028F8D1019B032B9E
:109C50001BD8012BF3D918460CF00CF9EFE70A2BAF
:109C600004D0092B21D00B2B02D1012005F04EFB93
:109C700001A8FFF7BFFF0528D8D00028F8D1019B25
:109C8000A3F10902022AF3D8E9E7A3F10902022AA3
:109C9000D5D80A2B04D0092B05D00B2BCFD101200E
:109CA00005F034FBCBE70220FAE70220DEE700BF35
:109CB00098640020755E03002DE9F04F2DED028BB6
:109CC0004FF4FA7089B00CF0EDFDB24E00F10803CC
:109CD00008EE103A054606F5F06706F5C86AD6F8AC
:109CE00024074FF0FF310DF0C3FA0028F7D04FF4EE
:109CF000FA730DF116012846ADF81630FFF786FF0E
:109D000010B10528F3D1EAE7B5F80490B9F1130FC3
:109D100000F2398106EB8903D3F834473CB1294678
:109D20002046FEF7C3FC9C482946FFF73DFB2B88E5
:109D3000013B1B2B5AD8DFE813F0160159005900DC
:109D4000590059005900590059005900590059004B
:109D50005900590059005900B4001C00590059001D
:109D6000590059005900590059005900590059002B
:109D7000A200DFF838824FF0000B58F8040F30B122
:109D8000FEF720FC18B10BF1010B5FFA8BFBB84515
:109D9000F3D1BBF1000F06D196F830371BB159460D
:109DA0000C200FF0F1FF2046FEF716FC012800F012
:109DB000EC80F26962B10223002195F808C000939B
:109DC000084606ABCDF81890CDF81CC00FF0C0FDCA
:109DD00009F5E67806EB8803586810B103685B68FC
:109DE000984706EB88080023C8F8043029465046F7
:109DF000FDF744FE69482946FEF7D6FFB6F832372C
:109E00004B452B8800F0B480102B1ED02CB320467D
:109E1000FEF7E2FB012803D15E482946FEF742FF28
:109E20002046FEF7D9FB02281BD05D48FEF728FD2F
:109E300000BB5C482946FEF7BBFDD6F88837002BEF
:109E40003FF455AF2846984751E7EB7B012BDDD116
:109E5000AB88A6F83237002CD9D14E482946FEF7F8
:109E600021FF51482946FDF7AFFE4D48FEF708FD9A
:109E70000028DED04A482946FEF704FDD9E7D6F887
:109E80008427002AB2D00223002195F908C000934C
:109E9000084606ABCDF81890CDF81CC00FF058FD61
:109EA000A4E74FF00008D6F82C07CDF80080434611
:109EB000424603213D4C0EF055FD54F8040F30B1DD
:109EC000FEF780FB18B108F101085FFA88F8BC4280
:109ED000F3D196F830376BB1B8F1000118BF01210A
:109EE0000C200FF051FF96F830371BB101210C20E8
:109EF0000FF04AFF09F5E67806EB8804606820B1A8
:109F000003685B68984700236360EB7B012B0BBF02
:109F100096F8123796F8183796F8134796F81947B7
:109F2000039334200EF0E4FF06EB8808039B0094B3
:109F300018EE102A04464946FEF710FB2046C8F8E2
:109F40000440FEF749FB012832D0B269002A3FF4F1
:109F50004DAF012300210093084606ABCDF81890C1
:109F60000FF0F6FC42E700214846FFF751FE3DE7BF
:109F7000102B3FF46AAF112B7FF448AF4FF6FF73FD
:109F8000A6F8323742E70446D1E6F268002A7FF4A9
:109F900012AF1DE798640020B8640020346B0020E5
:109FA000886B0020D8680020A8640020C86B0020BF
:109FB000B268002A3FF41AAF0021009006AB0846B1
:109FC000CDF818900FF0C4FC10E700BF38B5044678
:109FD000FEF72AFE04F11000FDF7C2FD04F1200097
:109FE000FEF7D8FF04F58860FEF784FC04F5C8602E
:109FF000FDF74CFC04F27C60FDF700FC04F29C6071
:10A00000FEF754FE04F5DE60FEF720FC4FF48053AB
:10A010000025C4F8083716481649174AC4F80C0733
:10A0200040F20113C4F81017C4F81427A4F8183725
:10A03000A4F81A5704F234702946502214F0DAFEBC
:10A0400001224FF6FF73A4F81C5784F81E57C4F87A
:10A050002457C4F82857C4F82C57C4F88857C4F8B4
:10A06000845784F83027A4F83237204638BD00BF23
:10A07000010A17000300010117000300F0B5BF4EED
:10A0800080F81C178DB080F81D2704460EF0AEFF37
:10A090000EF0B4FF0EF072FF3369B949039303A8C1
:10A0A000FFF7AAFD18B1002528460DB0F0BD01202C
:10A0B000FFF79AFD0120FFF795FD0120FFF796FDC0
:10A0C00009A8FFF795FD099B9B0705D5AD4BD3F874
:10A0D0000435002B00F0FE800023AB4A94F80D57A6
:10A0E000049209A90120CDE909330B938DF824507E
:10A0F000FFF78AFD0028D6D194F81D370B90CDE9E3
:10A100000900181E18BF012094F81C578DF827006D
:10A11000049A8DF8263009A940208DF82550FFF7C4
:10A1200073FD0028BFD194F80C170990034661F322
:10A130000003CDE90A00049A8DF8243009A9A02073
:10A14000FFF762FD0028AED1D4F808370A900B90D3
:10A15000049A099309A9A120FFF756FD0028A2D16E
:10A1600094F81C37002B40F0B98094F81D37002B71
:10A1700048D00023B4F81477049A0993022509A95A
:10A180002320CDE90A338DF82450ADF82670FFF76F
:10A190003BFD002887D1CDE9090094F81D77B4F87C
:10A1A00016370B90049A8DF8245009A920208DF8B9
:10A1B0002670ADF82830FFF727FD00287FF473AF35
:10A1C0000990CDE90A0094F81837049A8DF82450C4
:10A1D00009A922208DF82630FFF716FD00287FF40C
:10A1E00062AFCDE9090094F819370B90049A8DF805
:10A1F000245009A921208DF82630FFF705FD0028FD
:10A200007FF451AF04A8FFF7FDFC00287FF44BAFAB
:10A21000CDE9070040F0010307A902208DF81C30AA
:10A22000FFF7F8FC00287FF43EAF2046FEF70AFD5A
:10A23000054600283FF437AF04F12000FEF7C0FECA
:10A24000337D52498DF80830132202A8FFF7D6FC5F
:10A2500000287FF428AF94F81D37002B40F0888049
:10A260000322002101200CF09FFBC4F824070028E2
:10A270003FF419AF05AB0326CDE9006344494548D7
:10A2800000234FF4A0620DF00DFB324600210120A7
:10A290000CF08AFBC4F8280700283FF404AF06AB93
:10A2A000CDE900633C493D480023C8220DF0FAFA8D
:10A2B0003B4B4FF480021A603A4B00930023184640
:10A2C00001224FF480710EF0F7FAC4F82C0700F069
:10A2D00015FAE9E6022005F019F8FDE60990CDE946
:10A2E0000A00B4F80E37049AADF82630012509A902
:10A2F00023208DF82450FFF787FC00287FF4D3AE8D
:10A30000CDE9090094F81C77B4F810370B90049A43
:10A310008DF8245009A920208DF82670ADF828303A
:10A32000FFF772FC00287FF4BEAE0990CDE90A0069
:10A3300094F81237049A8DF8245009A922208DF838
:10A340002630FFF761FC00287FF4ADAECDE90900AF
:10A3500094F813370B90049A8DF8245009A9212002
:10A360008DF82630FFF750FC00283FF4FEAE9AE649
:10A3700004F11000FDF702FC72E700BF4C25040059
:10A38000199C02000070024000600020302504008B
:10A3900044250400B99C020048250400259C0200C5
:10A3A00000E100E01D9C020000B5084B85B01B7D5C
:10A3B000019108468DF80C3015F083FC019982B2AA
:10A3C00003A8FFF71BFC05B05DF804FB4C25040057
:10A3D00000B583B008460DF10601ADF80620FFF781
:10A3E0000FFC20B99DF8060003B05DF804FB0020C7
:10A3F00003B05DF804FB00BF70B4234B0E46054666
:10A400000FCB85B06C4607C49DF900202380B24273
:10A4100034D09DF90130B34230D09DF90230B342BF
:10A420002CD09DF90330B34228D09DF90430B342BB
:10A4300024D09DF90530B34220D0FEB19DF90730FC
:10A44000B3421BD09DF90830B34217D09DF90930B3
:10A45000B34213D09DF90A30B3420FD09DF90B30AF
:10A46000B3420BD09DF90C30B34207D09DF90D30AB
:10A47000B34203D0002005B070BC7047012085F8BE
:10A480001E6705B070BC70476425040090F91E0774
:10A49000704700BF70B5044682B0D0F82C070D4657
:10A4A0000EF08CFA4FF47A7206460023A90DA8022A
:10A4B00014F04EFA002302460421D4F82C0700932E
:10A4C0000EF050FA0EB102B070BD0096D4F82C0711
:10A4D0003346324603210EF045FA02B070BD00BF8C
:10A4E00070B500F5E66400F5F065002654F8040F39
:10A4F00020B1FEF767F808B10136F6B2AC42F5D1EB
:10A50000304670BD132906D800EB8101D1F834071D
:10A5100008B1FEF757B80020704700BFB0F8320707
:10A52000704700BF01290CBFB0F80E07B0F8140740
:10A53000704700BF13299ABF00EB8101D1F834079F
:10A540000020704710B5064C0021D4F828070CF005
:10A5500003FDD4F824070021BDE810400CF0FCBC3A
:10A560009864002090F8303703B9704710B582B076
:10A57000D0F82C470DF086FB0023024600932046BE
:10A5800001210EF0EFF902B010BD00BFF0B583B0AD
:10A59000002405462346D0F82C07009422460321C8
:10A5A0000EF0E0F905F5E66605F5F06756F8040FDC
:10A5B00020B1FEF707F808B10134E4B2BE42F5D18C
:10A5C00095F8303743B1211E18BF01210C2003B08C
:10A5D000BDE8F0400FF0D8BB03B0F0BD0148FFF775
:10A5E000F5BC00BF986400200020704700220121C4
:10A5F0004270C0E901220170C2818281704700BFB0
:10A6000010B50446017001B110BD0A200CF00EFA1D
:10A61000606010BD037810B5044643B100230122E9
:10A620006370C4E90133E381A381227010BD4068E7
:10A630000CF09AFFF2E700BF002381608281C381A2
:10A64000704700BF037870B504460D46B3B946683D
:10A65000012363704FF47A720023A802A90D14F04D
:10A6600077F9014630460CF003FE98B923780026AE
:10A670004FF0FF356670A3B9284670BD0322002154
:10A6800001200CF091F9064660600028E0D14FF0FF
:10A69000FF35F1E7E58923780026ADB26670002B1F
:10A6A000EAD060680CF060FF6660284670BD00BFAD
:10A6B0004078704738B504468089824228BF0246F8
:10A6C000154619B1A06814F06DFBA089E389A26852
:10A6D00015FA83F3401B9BB22A44A081E381A26058
:10A6E000284638BD406820B100231A4619460CF0B0
:10A6F000CFB97047B1DF7047B2DF704708B50F4878
:10A700000BF046FA0E490D4805F026FD28B10D491B
:10A710000A4805F021FD50B108BD0949074805F078
:10A7200037FD0849054805F017FD0028F4D1BDE8BC
:10A7300008400449014805F02BBD00BF58790020AE
:10A74000742504008825040070B586B00E460323E6
:10A750000021054614460093044A0496084603ABBC
:10A76000039505940FF0F4F806B070BD35AA020009
:10A7700070B586B00323144606460D460093104676
:10A7800003AB044A05940721CDE903650FF0E0F817
:10A7900006B070BD65AB020030B50A4691B089794C
:10A7A0005379039111790293D378094D094C0191A2
:10A7B00000939378527801280CBF2946214604A8BB
:10A7C00015F02AFA04A9044805F03AFD11B030BD8D
:10A7D0009C250400CC250400587900202DE9F04385
:10A7E000D1B00B78032B04AF0D460446904668D9D0
:10A7F0005A08022A5ED14F4A4F49504BDFF8489120
:10A80000012818BF11460022381D05F0F1FE4B4902
:10A8100007F1680005F022FE07F1CC0611E00246C0
:10A82000414607F1680005F00BFF08F138022946A0
:10A830004846FEF7EDFC044678BB07F1680005F0DA
:10A8400075FF0022391D304605F0A2FF07F1D00048
:10A850000DC8D7F8DC10D7F8E4407B67D7F8E830AC
:10A8600097F8E0C0F8663A67B967412207F1EC0152
:10A8700007F18800C7E9204387F87CC014F092FAFA
:10A8800007F1680005F07EFF044607F1680044B157
:10A8900005F084FD5028D0D1C1E707F1680005F02C
:10A8A00045FF381D05F042FF204607F59A77BD4663
:10A8B000BDE8F0830024204607F59A77BD46BDE841
:10A8C000F083E9468CB08979AB786A78039169792D
:10A8D0000291297901911A4E1A49E878009004AD45
:10A8E000012C08BF3146284607F1CC0615F094F933
:10A8F0001249304605F0B2FD29463046002205F0E7
:10A900005BFE044650B90024304605F00FFF204698
:10A91000CD4607F59A77BD46BDE8F083304605F091
:10A920003DFD021EEFDD92B24146304605F088FE45
:10A93000EAE700BF88250400742504005879002048
:10A940009C250400CC250400B8640020F0B5ADB00F
:10A9500095799378344E144652780395657902952B
:10A9600094F804C0CDF804C0304DE478009404AFEE
:10A970000C4601280CBF3146294607F10C0015F0A2
:10A980004BF92B4B07F10C0107F13C00002205F0BD
:10A990002FFE07F13C0005F0F5FE40B9002407F159
:10A9A0003C0005F0C3FE2046A437BD46F0BD07F1CC
:10A9B0003C0005F0F3FC051E08DD07F13C0005F046
:10A9C0007DFE291807F13C0005F05AFE07F13C0016
:10A9D00005F0E4FC051E08DD07F13C0005F06EFE05
:10A9E000291807F13C0005F04BFE07F13C0005F08B
:10A9F000D5FC0028D2DDC31D23F007036D46ADEB67
:10AA0000030D82B204A907F13C00C7E9001205F06A
:10AA100017FE2046D7E900120323FFF76BFEB0FABA
:10AA200080F46409AD46BAE79C250400CC250400F7
:10AA300058790020F0B5B5B092F84E5092F84A30EF
:10AA4000434E144692F84920039594F84D500295D0
:10AA500094F84C50019594F84B5000950D463D49A3
:10AA600004AF012818BF314607F12C0015F0D4F8C7
:10AA7000394807F12C0105F06FFB6E4600284AD1DA
:10AA8000354B07F12C0107F15C00012205F0B0FD08
:10AA900007F15C0005F076FE18B9C437B546BD462F
:10AAA000F0BD502107F15C0005F0A6FC50222146C4
:10AAB00007F15C0005F0DEFB0023294627487B6197
:10AAC000C7E90333C7E90633C7E90833BB62FFF7B9
:10AAD00031FD07F10C012022FDF798FE3B7B03B30B
:10AAE00007F10C0015F0EDF8013082B2C1B207F1A8
:10AAF0005C007A6005F080FC7A6807F10C0107F1D0
:10AB00005C0005F0B7FB07F15C0005F00FFEC437F1
:10AB1000B546BD46F0BD07F12C010F4805F090FB8E
:10AB2000AEE794F8491094F84D3094F84E20039114
:10AB300094F84A10029194F84B10019194F84C103B
:10AB4000009107F10C00064915F066F8C8E700BF50
:10AB5000CC2504009C25040058790020986400202E
:10AB6000FC2504002DE9F043ADB00C4604AF0021F4
:10AB7000032306461546204607F10A027981FFF7AE
:10AB8000BBFD7B89E84623B9A437C546BD46BDE871
:10AB9000F0830733DB08A8EBC3039D460DF11009D2
:10ABA000204607F10A0249460323FFF7A5FD0446A4
:10ABB0000028E9D1A979AB786A7803916979029183
:10ABC000297901913D483E49ED780095012E08BF55
:10ABD000014607F10C0015F01FF83A4B07F10C0184
:10ABE00007F13C00012205F003FD07F13C0005F0F0
:10ABF000C9FD0028C8D0214607F13C0005F040FD02
:10AC000007F13C0005F0CAFB041E08DD07F13C001B
:10AC100005F054FD211807F13C0005F031FD07F166
:10AC20003C0005F0BBFB041E08DD07F13C0005F00D
:10AC300045FD211807F13C0005F022FD07F13C001D
:10AC400005F0ACFB7C8980B2A04213D0E1B207F1E1
:10AC50003C0005F0D1FB2246494607F13C0005F0D7
:10AC600009FB07F13C0005F061FDA437C546BD4670
:10AC7000BDE8F083E31D6D46DB08A5EBC3039D46ED
:10AC800004A9224607F13C00796005F0D9FC7968F7
:10AC90007A89484614F078F808B9AD46E1E707F13B
:10ACA0003C0005F027FD7B89DB43191807F13C00C8
:10ACB00005F0E6FCAD467C89C8E700BF9C25040092
:10ACC000CC2504005879002038B590F8E8500DB133
:10ACD000284638BD012380F8E830044610F02EFEE7
:10ACE0000028F5D12046BDE8384000F0ADB800BFDF
:10ACF00010B5044C204600F0A3F8002384F8E83097
:10AD000010BD00BF246C002003680A689A4201D07D
:10AD10000020704770B5044684B04FF453700D4660
:10AD20000BF0C0FD0646B0B10C4800F0ABF823466E
:10AD30000435002153F8042B0095CDE90161084941
:10AD400010F096FC044630460BF0C6FDB4FA84F0D1
:10AD5000400904B070BD002004B070BD246C002018
:10AD60004DA40300F0B585B006464FF453700D4670
:10AD7000174603930BF096FD78B1044600903A46CF
:10AD8000281D311D03AB10F0F1FC054620460BF0E9
:10AD9000A3FD15B9039805B0F0BD002005B0F0BDC6
:10ADA00000220260704700BF10B50446084610F04C
:10ADB0004FFD2060003818BF012010BD0022026046
:10ADC000704700BF10B50446084610F041FD2060F2
:10ADD000003818BF012010BD00230360704700BF7A
:10ADE00000B583B00430019201AB0A46042110F093
:10ADF000B9FB18B9019803B05DF804FB002003B05B
:10AE00005DF804FBF0B5044683B04FF463700E4662
:10AE100017460BF047FD054678B1019054F8040B36
:10AE200000943A463146012310F0D8FA04462846E9
:10AE30000BF052FDB4FA84F0400903B0F0BD00BF3E
:10AE4000002280F8E420704770B590F8E4400CB11F
:10AE5000204670BD012380F8E43005464FF4BF5012
:10AE60000BF020FD06460028F2D0314628460FF0B0
:10AE7000D9FC0446B4FA84F4304664090BF02CFD86
:10AE8000204670BD704700BF0146014800F056BA29
:10AE9000306D002038B500F097F940B10024054628
:10AEA0002046013400F0C8FDE0B28542F9D838BD33
:10AEB00070B592B01D460C46164601A842220021EC
:10AEC00013F098FF412D5CD9631C0222DBB28DF890
:10AED00006408DF80E408DF8264040F6083540F2C9
:10AEE00002248DF81E308DF827308DF83130ADF802
:10AEF00004508DF807208DF812208DF833208DF83E
:10AF00003B20ADF80840204A069240F20125052377
:10AF10002424ADF810508DF815308DF81640042318
:10AF20001A4C8DF81F30012540F224628DF81C5018
:10AF30008DF830300894ADF82420154D0A9508237B
:10AF40004FF411640A228DF82C30ADF82E404023C6
:10AF50008DF834200F4C8DF83C3001A9304640F27A
:10AF6000075540F209464222ADF80C60ADF8385062
:10AF70008DF84330CDF83F4013F014FF422012B05B
:10AF800070BD002012B070BD20010524240202050E
:10AF90000705800307058002007EFF280AD010B550
:10AFA00000F0F8FC044608B1204610BD0EF0F0FB9E
:10AFB000204610BD00207047007EFF280ED000B54F
:10AFC00083B00DF1070100F02DFD20B19DF80700C1
:10AFD00003B05DF804FB4FF0FF30F9E74FF0FF30AE
:10AFE000704700BF007EFF280FD000B583B001225C
:10AFF0000DF1070100F0DAFC20B19DF8070003B065
:10B000005DF804FB4FF0FF30F9E74FF0FF30704779
:10B01000007EFF2801D000F00FBD7047007EFF28A2
:10B0200001D000F069BD0020704700BFF8B50646AA
:10B03000007EFF281CD017465AB10D46144600F07A
:10B0400083FC2946224680B1307E00F039FD241A67
:10B0500001D13846F8BD05440EF09AFB307E00F071
:10B0600073FC294622460028EED13F1B3846F1E703
:10B070000020F8BD70B50368184A5B6882B093423F
:10B080008DF8071021D10546007EFF2823D000F05F
:10B090005BFC0DF1070601243146224688B1287E6B
:10B0A00000F00EFD241A02D1012002B070BD06444A
:10B0B0000EF06EFB287E00F047FC31462246002849
:10B0C000EDD1C4F1010002B070BD01220DF1070104
:10B0D000984702B070BD002002B070BD2DB00200D4
:10B0E00070B592B01D460C46164601A842220021BA
:10B0F00013F080FE412D5CD9631C0222DBB28DF877
:10B1000006408DF80E408DF8264040F6083540F296
:10B1100002248DF81E308DF827308DF83130ADF8CF
:10B1200004508DF807208DF812208DF833208DF80B
:10B130003B20ADF80840204A069240F20125052345
:10B140002424ADF810508DF815308DF816400423E6
:10B150001A4C8DF81F30012540F224628DF81C50E6
:10B160008DF830300894ADF82420154D0A95082349
:10B170004FF411640A228DF82C30ADF82E40402394
:10B180008DF834200F4C8DF83C3001A9304640F248
:10B19000075540F209464222ADF80C60ADF8385030
:10B1A0008DF84330CDF83F4013F0FCFD422012B043
:10B1B00070BD002012B070BD2001052424020205DC
:10B1C0000705800307058002014B1878704700BF10
:10B1D0002C6D0020037EFF2B02D1074B1A7802B1A1
:10B1E0007047064902764161012200F110010448CE
:10B1F0001A7000F043B800BF2C6D00201C2604001C
:10B20000306D0020007EFF280ED000B583B000F026
:10B210009BFB10B103B05DF804FB01900EF0B8FA8F
:10B22000019803B05DF804FB0020704701B900B13C
:10B23000704700B583B0694600F09CFB009BB3F5F6
:10B24000966F02D003B05DF804FB00F029FBF9E72C
:10B2500030B4084B084AFF2002F108054FF47A7415
:10B260000021303218761D609C601A6130BC596034
:10B2700059617047106D00202C260400F8B5054672
:10B28000B0F818016C69B5F81A310A680E46044422
:10B290001B1A176895F81C119BB222463046B84716
:10B2A00050B3221894423CD2766806E0052B25D094
:10B2B00023780BB31C44A24233D96378042BF5D115
:10B2C000E378002BF4D195F81C11013185F81C119D
:10B2D000002EEDD095F840110729E9D801F1480773
:10B2E00045F82760217295F84011013185F8401129
:10B2F0001E462378002BDDD10020F8BD94F90230E2
:10B30000002B08DB95F81E31591C85F81E11A17819
:10B310000B43A370CCE795F81D31591C85F81D111E
:10B32000F5E7B5F818216B69104480B2A5F818014B
:10B33000588095F81C211A710120F8BD2DE9F043C1
:10B34000284DDFF8B090AC4604468846BCE80F00B4
:10B3500089B003AF0FC703AE0FCE05F1140E25461B
:10B360000FC59EE80700DCF800303B806B4636686E
:10B370002E8003C36B4603CB1B4EA06104F1180360
:10B380004FF4807C0125E16184F82020636140F264
:10B39000EF2200231548C4F8189140F20947042110
:10B3A000A4F81CC1C4F8280184F84011A280C4F894
:10B3B0002C31C4F83031C4F83431C4F83831C4F811
:10B3C0003C314FF4E131C4E94876094884F81E5114
:10B3D000A571FFF7FFFE404600F050FA284609B07D
:10B3E000BDE8F0837C2604006026040030250400BC
:10B3F000106D0020090000012DE9F04F04468BB0CC
:10B40000002900F09180032900F09C8090F84031E1
:10B410008B4240F2CB80483100F5A27550F8216094
:10B420003278002A00F0E78000231946374603E00F
:10B430000131725C7718CAB102F14000C0B2012834
:10B44000F6D9F42AF4D8100618D40120A2F55847EA
:10B45000B7F5006FECD30144202B00F0C98025F82C
:10B460001320725C01337718002AE5D1DBB2013377
:10B470005B0043F4407304F5A17C5DE002F0E00062
:10B48000C02800F0A18002F0F000E02800F09180D8
:10B4900002F0F800F028CBD102F007024FF0040EC2
:10B4A000787800F0C00CBCF1800FC1D197F802C0D1
:10B4B0000CF0C00800F03F00B8F1800F40EA8212A3
:10B4C000B6D10CF03F0CBEF1030F4CEA821275D0DE
:10B4D000F87800F0C007802FAAD100F03F0040EAC2
:10B4E0008212A2F58030B0F5801F38BF4FF0040EF5
:10B4F0009ED2A2F55840B0F5006F99D3B2F5803FC7
:10B500007144A9D31E2BB1DCA2F580325800970AF2
:10B510002844C2F30902A7F52057A2F5105225F8D6
:10B5200013704280023384E7D0F82031A0F8443110
:10B5300000F5A17C4FF44173A4F8423160460BB092
:10B54000BDE8F08F02A800F0ADF904F5A17C0190F0
:10B5500020B300F1FF3B5FFA8BF3284F04F1040B9B
:10B560000DF1080A0BEB830BA64606AE97E80F0019
:10B570001AF8018B86E80F0008F00F090AADA944FC
:10B5800005EB181819F8109C18F8103CAEF8469105
:10B59000AEF844310EF1040EDE45E7D1019B5B00AD
:10B5A000DBB201335B0043F44073C5E74FF0000C9E
:10B5B000C4E702F00F024FF0030E71E7A2F500603E
:10B5C000B0F5784F95D333E7787800F0C007802F37
:10B5D00002F01F027FF42CAF00F03F0040EA82121D
:10B5E000A2F18000B0F5F06FBFF422AF02202DE78A
:10B5F00040F242333FE740F202333CE76826040062
:10B6000000487047306D0020014B5869704700BFFB
:10B61000306D00200A4601460148FFF7EDBE00BF2D
:10B62000306D0020024B186800B10069704700BF00
:10B63000B46E002030B40848BDF80850046844B126
:10B64000646934B10846A44611461A462B4630BCFC
:10B650006047002030BC7047B46E002030B408480A
:10B66000BDF80850046844B1A46934B10846A44642
:10B6700011461A462B4630BC604730BC704700BFAD
:10B68000B46E0020024B186808B190F85000704763
:10B69000B86E00202DE9F047244C2568002D42D0DB
:10B6A0001F4600EBC00305EB83030446D3F818A044
:10B6B00089469046C600BAF1000F30D0504614F0CB
:10B6C00000FB0828024628BF0822344405EB840505
:10B6D000D5E90764DFF85CC0154B002E08BF66464D
:10B6E00051464846002C08BF1C4613F05BFB304611
:10B6F00014F0E7FA10280246314628BF10224046CF
:10B7000013F050FB204614F0DCFA042802462146D0
:10B71000384628BF0422BDE8F04713F043BBDFF8EA
:10B7200018A00822D1E7BDE8F08700BFB86E00205E
:10B73000B8260400A82604009C260400F8B50B4F88
:10B740003B688BB100EBC00503EB850504466A69D5
:10B75000C6001AB190473B6885F82A00344403EBD1
:10B76000840393F82A00F8BD1846F8BDB86E00208F
:10B77000074B1B685BB100EBC00003EB800010B40B
:10B78000038D446A0C605DF8044B1380704770476A
:10B79000B86E00200A781E2A01D10020704710B52B
:10B7A00020221C460521002300F078FF204610BD12
:10B7B00030B4094C029A256855B1044604EBC40420
:10B7C00005EB840408461946A3680BB130BC184742
:10B7D0004FF0FF3030BC7047B86E002030B4094CD9
:10B7E000029A256855B1044604EBC40405EB8404B1
:10B7F00008461946E3680BB130BC18474FF0FF30DC
:10B8000030BC7047B86E0020054B1B6833B100EBAD
:10B81000C00003EB8000036903B11847704700BF05
:10B82000B86E002000B5104B402283B083F8272368
:10B8300003F030FF4FF080430024D3F838548DF8E4
:10B84000004068460DF06EFB084B019301A80DF017
:10B85000B9FB0DF0C3FBEB0702D401F009FFFCE7D5
:10B86000204603F053FDF8E700E100E071B8020064
:10B8700003F04CBD002003F029BA00BF00B500233F
:10B8800083B00322CDE9002303490448C8220CF009
:10B8900009F803B05DF804FBBC26040025B80200DB
:10B8A0000EF012B94FF08052536E1BBA0360136E44
:10B8B0001BBA43600820704700487047C426040044
:10B8C00070B51F4D2B68B3B199B91478C4F3411406
:10B8D000012C0BD0022C07D15478012C0DD0022C56
:10B8E00007D19388072B21D0084670BD51782229B3
:10B8F0000CD0012070BD184670BDDC69F4B123780E
:10B9000011462246BDE8704002F070BE51880039F1
:10B9100018BF01211976114602F04EFE2A68136AFB
:10B92000002BE6D0107E9847204670BD054C11468E
:10B9300023892246BDE8704002F058BE204670BD03
:10B94000BC6E00200860002010B5044601F0ECFD3C
:10B9500008B9002010BD01F0EFFD0028F9D104481E
:10B960004FF45A7303FB0400007900F0010010BD8E
:10B97000C06E0020064B4FF45A7202FB003050F8A4
:10B98000063F0B60838882798A718B80704700BF85
:10B99000C06E002008B5044B4FF45A7202FB003011
:10B9A000103001F025FC08BDC06E00202DE9F041EB
:10B9B0004FF45A7505FB00F5194F05F110043C448E
:10B9C00092B2204601F040FC0646204601F02AFCD7
:10B9D0003F2802D83046BDE8F08107EB050800207B
:10B9E00098F8031002F01EFD0028F3D0204601F065
:10B9F00019FC3F280BD905F53A7298F803103A4420
:10BA00004023002002F072FD3046BDE8F08198F836
:10BA10000310002002F03EFD3046BDE8F08100BF7B
:10BA2000C06E0020034B4FF45A7202FB00301030FE
:10BA300001F07CBCC06E00202DE9F041044601F00D
:10BA400073FD10B90020BDE8F08101F075FD0646D8
:10BA50000028F7D14FF45A71DFF8608001FB04F43D
:10BA600004F12C054544284601F0C2FB0028E9D02A
:10BA700008EB04073046B97802F0D4FC0028E1D086
:10BA800004F54A74444428462146402201F0DCFB78
:10BA9000054660B1B978224630462B4602F026FDB5
:10BAA00040B9054B1B68DB07CCD500BECBE7B978A6
:10BAB00002F0F0FC2846C6E7F0ED00E0C06E002082
:10BAC00038B50C4B4FF45A7404FB00342C3492B24A
:10BAD0000546204601F06AFC034620461C4601F05C
:10BAE00087FB3F2801D8204638BD2846FFF7A4FF32
:10BAF000204638BDC06E002008B5044B4FF45A7282
:10BB000002FB00302C3001F08DFB08BDC06E002020
:10BB1000F0B51C4C83B000214FF45A722046012529
:10BB20000E4613F067F9FF234FF4424204F1480137
:10BB30006371E2802B460827009604F110004FF451
:10BB4000807227732581668101F016FB2B464FF426
:10BB5000807204F5A471009504F12C0001F00CFB37
:10BB600004F5127128460BF043F904F526710346DB
:10BB70002846C4E909630BF03BF9C4E9100603B099
:10BB8000F0BD00BFC06E002010B5094B002203F1CC
:10BB90002C0403F110001A601A7101F07DFC20469C
:10BBA00001F07AFC20460121BDE8104001F09CBC68
:10BBB000C06E00202DE9F0414B79022B82B002D1FA
:10BBC0008B79022B04D00025284602B0BDE8F08115
:10BBD000314FBB782BB1314B1B68DB07F3D500BE6F
:10BBE000F1E78B783B700C780C4406466178242989
:10BBF0004FF009050BD1082A02D80FE0AA420DD355
:10BC000023781C442B44617824299DB2F6D0052961
:10BC10001BD0042902D163790A2B28D0204801F0D7
:10BC200001FB3F28D0D9F978002002F0FBFB002867
:10BC3000CAD01B4801F0F6FA3F28F97813D9194AFF
:10BC40004023002002F052FCBEE72146304602F0BD
:10BC5000C9FB0028BFD0A3787B7023781C442B44F9
:10BC600061789DB2D5E7002002F014FCACE70E4AE3
:10BC700094F800800192022301320092304604EBD6
:10BC800008011A4602F03AFB0028A4D005F10E0381
:10BC900018FA83F39DB2C1E7C06E0020F0ED00E01A
:10BCA000D06E0020A8710020C26E002038B5137835
:10BCB00003F06003202B0CD1264C938825789D42FD
:10BCC00007D15378203B032B03D8DFE803F0091595
:10BCD0001E04002038BD71B3022931D0012038BDC7
:10BCE00061B10229FAD11C4B002BF7D01B4900206F
:10BCF000AFF30080012038BD0029EFD111460723A2
:10BD0000164A02F073FC012038BDA1B10229E5D129
:10BD10005588257105F00104114884F0010101F0F6
:10BD2000E3FB104B002BD9D0C5F340022146002085
:10BD3000FFF77CFAD2E7114602F03EFC012038BD45
:10BD4000094B002BCAD051880020AFF3008001209E
:10BD500038BD00BFC06E002000000000C66E00208D
:10BD6000EC6E00202DB20200000000002DE9F0472B
:10BD7000574DEA788A420C4607461E465CD19AB275
:10BD800005F53A7105F1100001F010FB514BD3B1EC
:10BD90006B79FF2B17D0B6B105F2E72808EB060A3E
:10BDA000A8F2D72902E0D0450DD06B7918F8012F01
:10BDB0009A42F8D1484601F02BFA0028F3D169796C
:10BDC000AFF30080EFE7444B23B1444801F020FA81
:10BDD000002870D0414801F025FA3F2805D9E978BC
:10BDE000002002F01FFB002858D1AB789C4203D002
:10BDF00001242046BDE8F087394B13B10020AFF392
:10BE0000008001F091FB20BB364801F0F1F90028D9
:10BE1000EED1002EECD016F03F06E9D1A9783846D5
:10BE200002F000FB04460028E2D0A97838463346E9
:10BE3000324602F05BFBDCE7AB788B42DCD02A4B6E
:10BE40001C6814F00104D4D000BE00242046BDE8D4
:10BE5000F08701F071FB04460028D5D1214801F09C
:10BE6000C7F90028D0D0A978204602F0DBFA0028D4
:10BE7000CAD01E494022A1F53F7001F0E5F9034602
:10BE800008B31A4AA978204602F030FB0028AFD147
:10BE9000154B1B68DB07B7D500BEB5E70F4801F0AF
:10BEA000C1F93F280AD94023114AE978002002F05D
:10BEB0001DFBAB789AE7AFF300808BE7E9780020B1
:10BEC00002F0E8FA91E7A97802F0E4FA9CE700BFF3
:10BED000C06E00200000000000000000D06E0020B6
:10BEE00000000000EC6E0020F0ED00E0E8710020A2
:10BEF000A871002002488C22002112F07BBF00BFF5
:10BF00002872002002488C22002112F073BF00BF6B
:10BF1000287200202DE9F0414B79032B82B011D11A
:10BF20000F79C7EBC7051235ADB295420C4604D860
:10BF3000DFF89C8098F8011049B1234B1B68DA07A1
:10BF400000D500BE0025284602B0BDE8F08194F877
:10BF500000C004EB0C0292F801E0BEF1210FECD11D
:10BF6000C8F8882014F80C1008F1010E08F1020C32
:10BF70001144CDE900CE3A46064602F0BFF900284A
:10BF8000DBD0A37998F80210012B04BFE37988F87D
:10BF900003300122D8F8883088F80420A278B3F85A
:10BFA000073088F80020A8F806300029CBD0074ACF
:10BFB0003046402302F09AFA0028C4D1024B1B6895
:10BFC000DB07C0D500BEBEE7F0ED00E070720020D8
:10BFD00028720020F0B51446127802F01F05012DDA
:10BFE00083B00FD10B467149A78891F800C0FFB20A
:10BFF000BC4507D112F06002064606D183BB6278C9
:10C00000062A30D0002003B0F0BD202AFAD1627891
:10C01000013A0A2AF6D801A050F822F0F1C0020035
:10C02000DDC00200C9C0020005C0020005C0020058
:10C0300005C0020005C0020005C00200B1C0020038
:10C040008BC0020049C0020063B3022B08D1638891
:10C05000574ADBB20B711AB119460020AFF30080CA
:10C06000012003B0F0BD6288120A212A65D0222A7D
:10C07000C8D11846FFF7D6FA4C490246CB8830465D
:10C08000214602F0B3FA2846BDE7002BE8D16288CA
:10C090004848120A4A7128B111461846AFF3008089
:10C0A0000028AFD02146304602F086FA0120AAE7E8
:10C0B000002B4ED1E388402BA4D83F4A214630467E
:10C0C00002F094FA01209EE7002BC9D13B4A214699
:10C0D0003046012302F08AFA012094E7002BBFD1F9
:10C0E000374A21463046012302F080FA01208AE7D0
:10C0F000002BB5D1E5886088402D4FEA10222F46ED
:10C1000028BF402710F0FF003ED0012D46D9013F47
:10C1100008722C49BFB201250B460097014600204A
:10C12000FFF788FA2B189BB28BBB274A1268D207FD
:10C130007FF568AF00BE184665E7D1F88820002A71
:10C140003FF460AF1378214603B0BDE8F04002F041
:10C150004DBA022B84D1E5886388402D2C4628BF38
:10C16000402413F0FF004FEA132205D0012D03D91C
:10C1700091F84830834214D00F4B009401460020C0
:10C18000FFF76CFA01203EE710491D46C4E70F4A4D
:10C190002146304602F02AFA012034E70B491D46B9
:10C1A000BAE7013C0A4BA4B2E7E700BF28720020BF
:10C1B0000000000000000000707200202C720020BF
:10C1C0002D72002031720020F0ED00E0307200206E
:10C1D0007172002030B51C4CA2788A4283B00CD119
:10C1E0006178914217D1194A22B11949DAB2002077
:10C1F000AFF30080012003B030BD62788A42F2D0F4
:10C20000144B1B68DB0703D500BE002003B030BD14
:10C21000002003B030BD00229BB2114605460093BA
:10C22000104604F14803FFF719FAA1782846402385
:10C2300004F1480202F05AF90028DBD1054B1B68D3
:10C24000DA07E5D500BED6E728720020000000001E
:10C2500030720020F0ED00E070B500F12C050446CE
:10C26000284600F0C5FF08B9002070BD61780020A5
:10C2700002F0D8F80028F7D004F50A7628463146AF
:10C28000402200F0E1FF054660B103466178324686
:10C29000002002F02BF940B9054B1B68DB07E3D502
:10C2A00000BE70BD617802F0F5F8284670BD00BF91
:10C2B000F0ED00E030B5164C83B000210D464FF490
:10C2C0001A72204612F096FD04F1480104F11000A4
:10C2D00000950123802200F04FFF802204F1C80165
:10C2E0000123009504F12C0000F046FF04F5A47131
:10C2F00001200AF07DFD04F5CC7103460120C4E95C
:10C3000009530AF075FDC4E9100503B030BD00BF44
:10C31000F495002010B5084C002304F11000C4E986
:10C320000033C4E9023301F0B7F804F12C00BDE892
:10C33000104001F0B1B800BFF49500202DE9F043A2
:10C340004B79012B83B002D18B79012B04D00025CE
:10C35000284603B0BDE8F083CB79002BF7D10B78EA
:10C36000CC1806466578242D99B20BD1914202D99A
:10C37000EDE78A42EBD323781C440B446578242DE7
:10C3800099B2F6D0042DE2D16379012BDFD1A379E4
:10C39000032BDCD1E579002DD9D1DFF8CC8098F8DA
:10C3A000010098F8023050EA030905D02B4B1B68B6
:10C3B000DB07CCD500BECBE7A37888F80030277820
:10C3C0002079CB199DB2274430B922E03B788145D2
:10C3D0001D44ADB21F441CD2AA421AD37B78052B50
:10C3E000F4D139463046019201F0FCFF019A68B35E
:10C3F000BB782079D90914BF88F8013088F8023059
:10C40000397809F101030D445FFA83F9ADB20F44A5
:10C41000DCE7134800F006FF3F2899D998F802108E
:10C42000002001F0FFFF002892D00D4800F0FAFE36
:10C430003F2898F8021005D90A4A4023002002F04C
:10C4400055F885E7002002F025F881E7034B1B68CB
:10C45000DA077FF57CAF00BE054679E7F0ED00E036
:10C4600004960020DC970020F495002000207047FF
:10C47000F8B52D4DAA788A421E4619D19AB205F513
:10C48000F47105F1100000F091FF284B13B100206A
:10C49000AFF30080264800F0C5FE3F2805D9A978F3
:10C4A000002001F0BFFF044668BB01242046F8BD10
:10C4B0006B788B4208D01F4B1C6814F00104F5D038
:10C4C00000BE00242046F8BD07462846FFF7C4FEFC
:10C4D0000028EAD105F12C0000F08AFE0028E4D102
:10C4E000002EE2D016F03F06DFD16978384601F021
:10C4F00099FF04460028D8D069783846334632463A
:10C5000001F0F4FFD2E70A4800F08CFE3F28A9783A
:10C5100005D9094A4023002001F0E8FFC6E70020C2
:10C5200001F0B8FFC2E700BFF49500200000000052
:10C5300004960020F0ED00E0DC97002070B52E4C52
:10C54000E28AA36852BA92B282B0054612B1B3FB36
:10C55000F2F292B2A06BD4F81110B0FBF2F61B1AF3
:10C56000B3F5007F28BF4FF4007309BA009302FBB4
:10C570001602224B607B3144FFF71AF9031E13DBCE
:10C5800009D094F82E101D4A9BB2284601F0AEFF48
:10C5900058B302B070BD94F82E10009328461A4686
:10C5A00001F078FE02B070BDA268A36B43F20330C5
:10C5B0000021D31AA08784F83E1001200221A36233
:10C5C00084F82C0084F83010002AE2D0002BE0D050
:10C5D000237BDB0914BF94F82E1094F82F10284603
:10C5E00002B0BDE8704001F0BDBF054B1B68DB0722
:10C5F000CFD500BECDE700BFB4740020B4720020D8
:10C60000F0ED00E038B5214B214C05461BB1607BB5
:10C61000AFF30080B0B1A06BA36894F82F101D4A4F
:10C620001B1AB3F5007F28BF4FF4007328469BB256
:10C6300001F05CFF00B138BD174B1B68DB07FAD572
:10C6400000BE38BDA26BA16884F83E008B1A42F28E
:10C6500007720120A2870222A36284F82C0084F8CA
:10C6600030200029E7D0002BE5D0237BDB0906D062
:10C6700094F82E102846BDE8384001F073BF94F8B6
:10C680002F102846BDE8384001F06CBF00000000C4
:10C69000B4740020B4720020F0ED00E0044880F88B
:10C6A0003C1080F83D2080F83E300120704700BFEC
:10C6B000B474002002484022002112F09BBB00BF4E
:10C6C000B474002002484022002112F093BB00BF46
:10C6D000B47400204B79082B01D0002070478B796F
:10C6E000062BFAD1CB79502BF7D1162A06D81C4B42
:10C6F0001B68D907F1D500BE0020704770B5194DF1
:10C700008B7885F82D300B7882B005F12F0205F17A
:10C710002E0619440223CDE900261A46044601F0EC
:10C72000EDFD30B90E4A1268D2070FD500BE02B037
:10C7300070BD204695F82F1000241F232A4685F847
:10C74000304001F0D3FE20B11720F0E7002002B006
:10C7500070BD034B1B68DB07F6D500BE1720E6E76C
:10C76000F0ED00E0B4740020002961D170B51378B9
:10C7700003F07F05022D84B0044620D003F060034F
:10C78000202B02D0002004B070BD5378FE2B34D093
:10C79000FF2BF7D15388002BF4D1D688B3B2002BEE
:10C7A000F0D13B4D11462046AE87C5E90D3385F8E3
:10C7B000303085F83E3001F0FFFE0120E3E7557888
:10C7C000012DDBD15388002BDCD1314E938896F8B4
:10C7D0003020042ADBB243D096F82E10994229D09B
:10C7E00096F82F509D4205D122B9294601F0ACFEA2
:10C7F00000283AD0012004B070BD5388002BC1D16D
:10C80000D0880128BED1234B8DF80F002BB10192A7
:10C81000FEF738FF019A0028B4D0451E1146204685
:10C8200001230DF10F028DF80F5001F0DFFEE1E75B
:10C8300001207047022ADDD1B26BB3689B1A032432
:10C84000B36206F120020D2386F8304001F04EFE5F
:10C850000028CFD1104B1B68DB0793D500BE92E7B1
:10C86000194601F07FFE28468DE72946204601F053
:10C8700095FE0028BED1002386F8303096F82F10A0
:10C88000034A20461F2301F031FE0028B2D1E1E720
:10C89000B474002085B60200F0ED00E0F0B5A74CBE
:10C8A00094F83050012D8FB01E4607466FD0032DEF
:10C8B00046D02DB1022D00F0898001200FB0F0BDCF
:10C8C00094F82F308B42F8D11F2E40F09E809C4B65
:10C8D00022689A4240F09980E37B9A4A6068A56298
:10C8E00084F82C50A5632262A56860620122282B7F
:10C8F00084F83020656300F0DA802A2B00F09F82F4
:10C90000002D00F02981227BD20940F02581B5F568
:10C91000007F40F2F78294F83C30A56201200222A9
:10C9200084F82C0084F8302023B942F2050284F800
:10C930003E30A287384601F015FE94F83050B9E732
:10C9400094F82E308B42B8D10D2EB6D1E37B282B34
:10C9500000F06D822A2B00F062827B4B23B1607B5A
:10C9600004F10F01AFF30080002084F83000734A17
:10C9700094F82F101F23384601F0B8FD0028DCD1B1
:10C98000724B1B68DA0700F19080002096E7E37B8A
:10C99000282B12D02A2B59D0A36B227B3344D209E7
:10C9A000A36347D0626B9A420DD9684B1B68DB07C3
:10C9B000C3D500BE94F830507CE7D4E90D2333444E
:10C9C0009342A3636CD3022384F8303094F82E1082
:10C9D000384601F0E3FD00287FF46FAFA368A26B37
:10C9E000934202D9217BC9091ED19B1A0325A36258
:10C9F00094F82E10564A84F8305038460D2301F032
:10CA000075FD00287FF459AFBAE7042394F82E107F
:10CA100084F83030384601F0A5FD384694F82F10E0
:10CA200001F0A0FD002049E794F82E10384601F0EF
:10CA300099FD42E7A38E474A607B04F10F01FEF7A0
:10CA4000A9FE0028C0F2C981A36BABE7E08A40BA17
:10CA500080B218B1A368B3FBF0F080B2D4F8111023
:10CA6000A26B3C4DB2FBF0F309BA00FB1322194450
:10CA7000607B00962B46FEF7B1FE0028C0F20A82CA
:10CA8000864252D9002840F03382002394F82F10B8
:10CA900000933246384601F0FDFB94F8305009E728
:10CAA000FFF74CFD94F8305004E700BE06E7E28A39
:10CAB00052BA92B29DB9002A85D094F83C30022235
:10CAC000002184F82C2084F83020A162002B7FF410
:10CAD0007DAF42F2050284F83E30A28776E7207BE4
